:100000000C941E0C0C944F0C0C944F0C0C944F0C35
:100010000C944F0C0C944F0C0C944F0C0C944F0CF4
:100020000C944F0C0C944F0C0C944F0C0C944F0CE4
:100030000C944F0C0C944F0C0C944F0C0C944F0CD4
:100040000C944F0C0C948F660C944F0C0C944F0C2A
:100050000C944F0C0C944F0C0C943D780C9493849E
:100060000C944F0C0C9410140C944F0C0C944F0CDB
:100070000C944F0C0C944F0C0C944F0C0C944F0C94
:100080000C94DE450C944F0C0C944F0C0C944F0CBC
:100090000C944F0C0C944F0C0C944F0C0C944F0C74
:1000A0000C944F0C0C944F0C0C940B460C944F0C6E
:1000B0000C944F0C0C944F0C0C944F0C0C94384631
:1000C0000C944F0C0C944F0C0C944F0C0C949A12F3
:1000D0000C944F0C0C944F0C0C944F0C0C944F0C34
:1000E0000C944F0C86789278AE78BB78D578E2780D
:1000F000FC78FE7806798281148314831483148338
:100100001483148314831483148314831483148337
:100110001483148314831483148314831483148327
:100120001483148314831483148314837B811483B2
:100130001483148314831483148314831483148307
:1001400014831483148314831483148314831483F7
:100150001483148314831483637A2E7BCF7BD87B20
:100160000B7C127C177C307C4D7C617C797C827CA2
:100170008F7CA47DC07E7D7F9F7FA47FA77FAA7F89
:10018000AD7FBA7F3F808880D080EB801E81148352
:100190001483148314831083148314830D83B6850E
:1001A000BB85C085CA85D4854D86DE85E685EE850E
:1001B000F88502860C861B8625864D862F86398615
:1001C00043866E867186608664866A86A886758692
:1001D00079867F86838687868D8691869586A88692
:1001E0009B869F86A386084AD73B3BCE016E84BC84
:1001F000BFFDC12F3D6C74319ABD56833DDA3D0081
:10020000C77F11BED9E4BB4C3E916BAAAABE0000C9
:1002100000803F05A84CCDB2D44EB93836A9020CA7
:1002200050B9918688083CA6AAAA2ABE0000008080
:100230003F0048617264636F646564204465666171
:10024000756C742053657474696E6773204C6F61AC
:100250006465640053746F726564207365747469B7
:100260006E677320726574726965766564002044F8
:10027000002049002020204D3330312050005049CB
:10028000442073657474696E67733A00205A0020C5
:10029000590020204D323036205800486F6D6520BF
:1002A0006F666673657420286D6D293A00204500DD
:1002B000205A0020580020420020540020204D32B7
:1002C0003035205300416476616E63656420766149
:1002D000726961626C65733A20533D4D696E2066A8
:1002E0006565647261746520286D6D2F73292C20FB
:1002F000543D4D696E2074726176656C206665654B
:10030000647261746520286D6D2F73292C20423D25
:100310006D696E696D756D207365676D656E7420AE
:1003200074696D6520286D73292C20583D6D6178A6
:10033000696D756D205859206A65726B20286D6D46
:100340002F73292C20205A3D6D6178696D756D20C1
:100350005A206A65726B20286D6D2F73292C20201E
:10036000453D6D6178696D756D2045206A65726BDC
:1003700020286D6D2F73290020540020204D32302D
:1003800034205300416363656C65726174696F6EFC
:100390003A20533D616363656C65726174696F6E89
:1003A0002C20543D726574726163742061636365CF
:1003B0006C65726174696F6E00204500205A0020E0
:1003C000590020204D3230312058004D6178696D40
:1003D000756D20416363656C65726174696F6E2031
:1003E000286D6D2F7332293A00204500205A0020D5
:1003F000590020204D3230332058004D6178696D0E
:10040000756D2066656564726174657320286D6D15
:100410002F73293A00204500205A0020590020203F
:100420004D39322058005374657073207065722006
:10043000756E69743A0053657474696E67732053FE
:10044000746F726564006563686F3A005072696E1C
:100450007465722073746F707065642064756520B4
:10046000746F206572726F72732E204669782074E3
:100470006865206572726F7220616E6420757365A5
:10048000204D39393920746F20726573746172742C
:100490002E202854656D70657261747572652069CF
:1004A000732072657365742E2053657420697420FF
:1004B00061667465722072657374617274696E67C7
:1004C00029005072696E7465722068616C7465648D
:1004D0002E206B696C6C28292063616C6C6564212B
:1004E000006F6B00526573656E643A200022005500
:1004F0006E6B6E6F776E20636F6D6D616E643A2008
:1005000022007A5F6D61783A20007A5F6D696E3AF9
:100510002000795F6D61783A2000795F6D696E3AED
:100520002000785F6D61783A2000785F6D696E3ADF
:1005300020005A3A00593A0020436F756E742058D3
:100540003A2000453A005A3A00593A00583A0046D3
:1005500049524D574152455F4E414D453A4D6172AA
:100560006C696E2056313B20537072696E746572EF
:100570002F6772626C206D617368757020666F7290
:100580002067656E36204649524D574152455F55AA
:10059000524C3A687474703A2F2F7777772E6D65C6
:1005A0006E64656C2D70617274732E636F6D205074
:1005B000524F544F434F4C5F56455253494F4E3A5A
:1005C000312E30204D414348494E455F54595045E6
:1005D0003A4D656E64656C204558545255444552F9
:1005E0005F434F554E543A3120555549443A3030C7
:1005F0003030303030302D303030302D3030303001
:100600002D303030302D30303030303030303030F0
:1006100030300A0020423A0020453A00543A002087
:10062000573A0020453A00543A002042403A002010
:10063000403A00202F003A00205400202F00204292
:100640003A00202F006F6B20543A002569206D6915
:100650006E2C2025692073656300456E64206669F1
:100660006C65206C69737400426567696E20666909
:100670006C65206C69737400256920686F757273EE
:10068000202569206D696E7574657300446F6E6511
:10069000207072696E74696E672066696C650050BF
:1006A00072696E7465722073746F70706564206413
:1006B000756520746F206572726F72732E204669A3
:1006C0007820746865206572726F7220616E642094
:1006D000757365204D39393920746F2072657374D4
:1006E0006172742E202854656D7065726174757224
:1006F000652069732072657365742E2053657420BC
:1007000069742061667465722072657374617274B5
:10071000696E6729006F6B004E6F204C696E652013
:100720004E756D62657220776974682063686563D1
:100730006B73756D2C204C617374204C696E653A37
:1007400020004E6F20436865636B73756D20776979
:100750007468206C696E65206E756D6265722C2000
:100760004C617374204C696E653A20006368656360
:100770006B73756D206D69736D617463682C204CAB
:10078000617374204C696E653A20004C696E652077
:100790004E756D626572206973206E6F74204C61B6
:1007A0007374204C696E65204E756D6265722B31D5
:1007B0002C204C617374204C696E653A20004D31D9
:1007C000313000446F6E6520736176696E67206614
:1007D000696C652E006F6B004D3239002020506C23
:1007E000616E6E6572427566666572427974657394
:1007F0003A20002046726565204D656D6F72793A2A
:1008000020004F6374202037203230313600436F90
:100810006D70696C65643A2000286E6F6E652C20DF
:1008200064656661756C7420636F6E666967290024
:10083000207C20417574686F723A20004F637420E9
:10084000203720323031362030383A35363A323996
:1008500000204C61737420557064617465643A20A3
:1008600000312E302E30004D61726C696E200020F8
:10087000536F6674776172652052657365740020EA
:100880005761746368646F672052657365740020F4
:1008900042726F776E206F757420526573657400B5
:1008A0002045787465726E616C20526573657400C2
:1008B000506F776572557000737461727400220016
:1008C000656E717565696E672022002200656E7124
:1008D0007565696E67202200FFFFFF0000A04000E1
:1008E00000A0400000803F00004843000048430053
:1008F0000034430000000000000000000000000081
:10090000004843000048430000344300000000005A
:10091000000000000000006563686F3A00457272D5
:100920006F723A007C3C3E5E2B3D3F2F5B5D3B2C63
:100930002A225C004D383420582059205A20450086
:100940004D3234004D3233202573006175746F25AC
:10095000692E67006572726F722077726974696EB2
:100960006720746F2066696C65004E6F7420534475
:10097000207072696E74696E67002F005344207096
:1009800072696E74696E67206279746520002E004A
:1009900044656C6574696F6E206661696C65642C72
:1009A0002046696C653A200046696C652064656C78
:1009B000657465643A002E006F70656E206661692B
:1009C0006C65642C2046696C653A20005772697426
:1009D000696E6720746F2066696C653A20002E008E
:1009E0006F70656E206661696C65642C2046696C69
:1009F000653A20002E006F70656E206661696C6537
:100A0000642C2046696C653A200046696C65207349
:100A1000656C6563746564002053697A653A2000EB
:100A200046696C65206F70656E65643A20002E0023
:100A30006F70656E206661696C65642C2046696C18
:100A4000653A20004E6F772066726573682066698C
:100A50006C653A20004E6F7720646F696E67206680
:100A6000696C653A20002220706F7300222070614B
:100A700072656E743A2200535542524F5554494E96
:100A8000452043414C4C207461726765743A2200E2
:100A9000747279696E6720746F2063616C6C207367
:100AA00075622D67636F64652066696C6573207776
:100AB00069746820746F6F206D616E79206C657643
:100AC000656C732E204D4158206C6576656C2069ED
:100AD000733A0053442063617264206F6B006F703F
:100AE000656E526F6F74206661696C656400766F25
:100AF0006C756D652E696E6974206661696C6564DC
:100B000000534420696E6974206661696C006563F6
:100B1000686F3A004572726F723A0020746F6F20EE
:100B20006C6F6E6720657874727573696F6E207074
:100B3000726576656E7465640020636F6C64206511
:100B40007874727573696F6E2070726576656E74F5
:100B50006564006563686F3A00205A3A0020593A8C
:100B60000020583A00656E6473746F707320686972
:100B7000743A200024F4D43050C38E20C2A240170F
:100B8000828B7011127A910D816CD90AA861E108EB
:100B9000C7586607615143061E4B5D05C145A70452
:100BA0001A411104093D9803713931034036DB02C3
:100BB00065339102D4305402802E1D02632CEE0165
:100BC000752AC501B028A001102781018F25640175
:100BD0002B244B01E0223401AC211F018D200D019B
:100BE000801FFC00841EED00971DDF00B81CD200A2
:100BF000E61BC600201BBC00641AB200B219A80094
:100C00000A19A0006A189900D117910040178B00AB
:100C1000B516840031167E00B31579003A157300BD
:100C2000C7146F0058146A00EE136600881363003F
:100C300025135E00C7125B006C125700151254009A
:100C4000C111510070114F0021114B00D610490005
:100C50008D1047004610440002104200C00F4000B3
:100C6000800F3E00420F3C00060F3B00CB0E3800C9
:100C7000930E37005C0E3500270E3400F30D320062
:100C8000C10D3100900D3000600D2E00320D2D0091
:100C9000050D2C00D90C2B00AE0C2900850C290069
:100CA0005C0C2700350C27000E0C2600E80B2400F6
:100CB000C40B2400A00B23007D0B23005A0B210042
:100CC000390B2100180B2000F80A1F00D90A1E005A
:100CD000BB0A1E009D0A1D00800A1D00630A1C003D
:100CE000470A1B002C0A1B00110A1A00F7091A00F8
:100CF000DD091900C4091900AB0919009209170090
:100D00007B091800630917004C0916003609160004
:100D1000200916000A091500F5081500E00814005E
:100D2000CC081400B8081400A4081400900813009C
:100D30007D0812006B0813005808120046081200C4
:100D400034081100230811001208110001081100D5
:100D5000F0071000E0071000D0071000C0071000D7
:100D6000B0070F00A107100091070E0083070F00C6
:100D700074070F0065070E0057070E0049070E00A5
:100D80003B070D002E070E0020070D0013070D0076
:100D900006070D00F9060C00ED060D00E0060C003C
:100DA000D4060C00C8060C00BC060C00B0060C00F3
:100DB000A4060B0099060C008D060B0082060B00A2
:100DC00077060B006C060B0061060A0057060B0045
:100DD0004C060A0042060A0038060A002E060A00DF
:100DE00024060A001A060A001006090007060A006F
:100DF000FD050900F4050900EB050900E2050900FD
:100E0000D9050900D0050900C7050900BE0509007C
:100E1000B5050800AD050800A50509009C050800FA
:100E2000940508008C050800840508007C0508006E
:100E3000740508006C050700650508005D050700DE
:100E4000560508004E050700470507004005080045
:100E500038050700310507002A05070023050700AC
:100E60001C050600160507000F050700080506000B
:100E700002050700FB040600F5040700EE04060067
:100E8000E8040600E2040700DB040600D5040600BF
:100E9000CF040600C9040600C3040600BD04060012
:100EA000B7040600B1040500AC040600A604060061
:100EB000A00405009B0406009504050090040600AC
:100EC0008A04050085040500800406007A040500F4
:100ED00075040500700405006B0405006604050038
:100EE000610405005C040500570405005204050078
:100EF0004D04050048040500430405003E040400B9
:100F00003A04050035040500300404002C040500F3
:100F100027040400230405001E0404001A0404002E
:100F200016040500110404000D0404000904050062
:100F30000404040000040400FC030400F80304009B
:100F4000F4030400F0030400EC030400E8030400CD
:100F5000E4030400E0030400DC030400D8030400FD
:100F6000D4030400D0030400CC030400C80303002E
:100F7000C503030024F404D9201BC40C5C0E9804A0
:100F8000C4095F0265077101F405F900FB04B300B1
:100F900048048700C1036900580355000303450056
:100FA000BE023A008402310053022A0029022500C1
:100FB00004022000E4011C00C8011900AF01170061
:100FC00098011400840113007101100061011000E8
:100FD00051010E0043010D0036010B002B010B00E7
:100FE00020010B00150109000C0109000301080094
:100FF000FB000800F3000800EB000700E400060017
:10100000DE000600D8000600D2000600CC00050075
:10101000C7000500C2000500BD000400B9000400BF
:10102000B5000400B1000400AD000400A9000400F4
:10103000A5000300A20003009F0004009B00030022
:101040009800030095000200930003009000030045
:101050008D0002008B000300880002008600020061
:1010600084000300810002007F0002007D00020076
:101070007B00020079000200770001007600020088
:101080007400020072000100710002006F00020093
:101090006D0001006C0002006A000100690002009E
:1010A00067000100660001006500010064000200A5
:1010B0006200010061000100600001005F000200A9
:1010C0005D0001005C0001005B0001005A000100AE
:1010D00059000100580001005700010056000100AE
:1010E00055000100540001005300000053000100AE
:1010F0005200010051000100500001004F000100AA
:101100004E0000004E0001004D0001004C000100A7
:101110004B0000004B0001004A00010049000100A3
:1011200048000000480001004700010046000000A0
:101130004600010045000000450001004400010098
:101140004300000043000100420000004200010093
:101150004100000041000100400001003F0000008C
:101160003F0001003E0000003E0001003D00000085
:101170003D0001003C0000003C0000003C0001007C
:101180003B0000003B0001003A0000003A00010073
:10119000390000003900010038000000380000006C
:1011A0003800010037000000370001003600000061
:1011B0003600000036000100350000003500000058
:1011C000350001003400000034000000340001004C
:1011D0003300000033000000330001003200000043
:1011E0003200000032000100310000003100000038
:1011F000310001003000000030000000300001002C
:101200002F0000002F0000002F0000002F00010021
:101210002E0000002E0000002E0001002D00000016
:101220002D0000002D0000002D0001002C0000000A
:101230002C0000002C0000002C0001002B000000FE
:101240002B0000002B0000002B0001002A000000F2
:101250002A0000002A0000002A00010029000000E6
:1012600029000000290000002900000029000100D9
:1012700028000000280000002800000028000000CE
:1012800028000100270000002700000027000000C0
:1012900027000000270001002600000026000000B3
:1012A00026000000260000002600010025000000A6
:1012B000250000002500000025000000250000009A
:1012C000250001002400000024000000240000008C
:1012D000240000002400010023000000230000007F
:1012E0002300000023000000230000002300000072
:1012F0002300010022000000220000002200000064
:101300002200000022000000220001002100000055
:101310002100000021000000210000002100000049
:10132000210000002100010020000000200000003A
:10133000200000002000000020000000200000002D
:1013400020000000200001001F0000001F0000001E
:101350001F0000001F0000001F0000001F00000011
:101360001F0001001E0000001E0000001E00000003
:101370001E0000006563686F3A0054656D70657209
:101380006174757265206865617465642062656466
:10139000207377697463686564206F66662E204DDC
:1013A000415854454D502074726967676572656491
:1013B000202121003A20457874727564657220738B
:1013C00077697463686564206F66662E204D494EA8
:1013D00054454D50207472696767657265642021B9
:1013E000003A204578747275646572207377697469
:1013F00063686564206F66662E204D415854454DE4
:101400005020747269676765726564202100202D21
:1014100020496E76616C69642065787472756465C4
:1014200072206E756D626572202100504944204122
:1014300075746F74756E652066696E69736865642E
:10144000212050757420746865204B702C204B69E6
:1014500020616E64204B6420636F6E7374616E74E0
:101460007320696E746F20436F6E66696775726171
:1014700074696F6E2E6800504944204175746F7412
:10148000756E65206661696C6564212074696D659F
:101490006F75740020403A006F6B20543A006F6BF8
:1014A00020423A00504944204175746F74756E654E
:1014B000206661696C6564212054656D7065726198
:1014C0007475726520746F6F206869676800204BBF
:1014D000643A2000204B693A2000204B703A2000EB
:1014E00020436C6173696320504944200020547587
:1014F0003A2000204B753A2000206D61783A200098
:10150000206D696E3A200020643A200020626961F3
:10151000733A20004572726F723A0070012C01908C
:10152000012701B0012201C0011D01F001180110C5
:1015300002130130020E016002090190020401C091
:1015400002FF000003FA004003F5008003F000D022
:1015500003EB002004E6007004E100E004DC00403E
:1015600005D700C005D2004006CD00D006C80080D7
:1015700007C3003008BE00F008B900C009B400B0CD
:101580000AAF00B00BAA00D00CA500000EA00050BE
:101590000F9B00C01096005012910000148C00C0E8
:1015A000158700B0178200B0197D00D01B780000AD
:1015B0001E730040206E0090226900F024640040F9
:1015C000275F0090295A00E02B5500102E50002074
:1015D000304B0010324600E033410090353C0010A3
:1015E00037370070383200A0392D00B03A2800A0FB
:1015F0003B2300603C1E00103D1900903D1400107C
:101600003E0F00703E0A00C03E0500003F00004D46
:101610003831004D3834004D38342045004D3834D1
:1016200000473238004D3834004731205A333000FB
:101630004732382000473238205A3000473120588E
:1016400033302059313835205A3230004732382073
:101650005A3000473120583138352059313835203B
:101660005A323000473238205A3000473120583142
:10167000383520593330205A323000473238205A1A
:101680003000473120463130303030205833302060
:10169000593330205A32300047323820463130300A
:1016A0003030004D38340047312058313230205925
:1016B00030205A35300047323800473238205A300F
:1016C0000047323820593000473238205830004D1A
:1016D000313034205430205325692E6700473120A3
:1016E0005835205935004D383420582059205A207B
:1016F000450000000A0B02090C0D0E080703040147
:1017000000000000000000000000000000000000D9
:1017100000000000000000000000000000001211A6
:1017200010000000000000000000000000000000A9
:101730000000000000000000010210202008081036
:101740002040102040800201020108040201010231
:10175000040810204080804020100804020180040A
:101760000201804020100804020108040201010265
:101770000408102040800102040810204080050564
:101780000505070508080808020202020A0A0808F7
:101790000404040401010101010101010303030325
:1017A00003030303040707070C0C0C0C0C0C0C0CB4
:1017B0000202020206060606060606060B0B0B0BC5
:1017C0000B0B0B0B00002200250028002B002E0025
:1017D0003100340002010000050108010B01000086
:1017E0002100240027002A002D00300033000101D1
:1017F0000000040107010A014E414E494E49545967
:10180000494E46CDCCCC3D0AD7233C17B7D13877CB
:10181000CC2B329595E6241FB14F0A0000204100E1
:1018200000C84200401C4620BCBE4CCA1B0E5AAE2B
:10183000C59D740082358B848A35908411241FBE27
:10184000CFEFD1E2DEBFCDBF00E00CBF14E0A0E0DF
:10185000B2E0E8E5FBE201E00BBF02C007900D92A9
:10186000AE33B107D9F722E1AEE3B4E001C01D9277
:10187000AB3BB207E1F718E1C8E3D8E100E006C0EE
:1018800022970109FE010BBF0E946F8DC433D1075F
:1018900080E00807A9F70E9456880C949A950C944A
:1018A0000000EF92FF920F931F93CF93DF931F924D
:1018B000CDB7DEB78C017B01460FF70161917F0147
:1018C000F8018081918149830E94E394F80180812D
:1018D000918101969183808349814E11EECF0F90C3
:1018E000DF91CF911F910F91FF90EF900895EF92AC
:1018F000FF920F931F93CF93DF931F92CDB7DEB765
:101900008C017B01460FF8018081918149830E94FF
:10191000DB94F70181937F01F80180819181019629
:101920009183808349814E11EECF0F90DF91CF914B
:101930001F910F91FF90EF9008950F931F93CF93F6
:10194000DF93CDB7DEB768970FB6F894DEBF0FBE52
:10195000CDBF80E390E3A0E3B0E08D839E83AF83AF
:10196000B88704E610E0188F0F8B44E0BE016B5F70
:101970007F4FCE01479695DF40E16AE971E1CE01E4
:1019800047968FDF40E16AEA71E1CE01479689DF31
:1019900040E16AE871E1CE01479683DF44E062E806
:1019A00071E1CE0147967DDF44E06EE771E1CE0143
:1019B000479677DF44E066E871E1CE01479671DF34
:1019C00044E06EE671E1CE0147966BDF44E06AEBDE
:1019D00071E1CE01479665DF44E06AE771E1CE012F
:1019E00047965FDF44E066E771E1CE01479659DF35
:1019F00044E062E771E1CE01479653DF4CE066E3D5
:101A000077E0CE0147964DDF84EB90E09E8B8D8B87
:101A10008CE390E09C8B8B8B8FEF90E09A8B898B83
:101A200026EE30E0388B2F871E870D879C878B87AB
:101A300042E0BE016B5E7F4FCE01479632DF42E04F
:101A4000BE016D5E7F4FCE0147962BDF42E0BE01A7
:101A50006F5E7F4FCE01479624DF42E0BE01615F9B
:101A60007F4FCE0147961DDF42E0BE01635F7F4F8F
:101A7000CE01479616DF42E0BE01655F7F4FCE0183
:101A800047960FDF44E063E277E0CE01479609DF37
:101A900044E061E772E0CE01479603DF44E06DE683
:101AA00072E0CE014796FDDE44E069E672E0CE01C9
:101AB0004796F7DE80E290E09A87898742E0BE0190
:101AC000675F7F4FCE014796ECDE86E591E3A0E3AA
:101AD000B0E089839A83AB83BC83188F0F8B44E07B
:101AE000BE016F5F7F4FCE014796DBDEE6E4F4E098
:101AF0008491882341F09091C00095FFFCCF8093A2
:101B0000C6003196F5CFE6E3F4E08491882341F0F6
:101B10009091C00095FFFCCF8093C6003196F5CF21
:101B20008091C00085FFFCCF8AE08093C600689654
:101B30000FB6F894DEBF0FBECDBFDF91CF911F91DE
:101B40000F910895CF93DF93C6E4D4E0FE01849112
:101B5000882341F09091C00095FFFCCF8093C60090
:101B60003196F5CFE6E2F4E08491882341F090913C
:101B7000C00095FFFCCF8093C6003196F5CF8091D1
:101B8000C00085FFFCCF8AE08093C600FE018491EF
:101B9000E6E4F4E0882349F09091C00095FFFCCF83
:101BA0008093C60031968491F5CF40919A1150915F
:101BB0009B1160919C1170919D118EE194E00E94A7
:101BC000F71740919E1150919F116091A011709153
:101BD000A1118BE194E00E94F7174091A21150915E
:101BE000A3116091A4117091A51188E194E00E9465
:101BF000F7174091A6115091A7116091A81170910B
:101C0000A91185E194E00E94F7178091C00085FF3B
:101C1000FCCF8AE08093C600FE018491E6E4F4E004
:101C2000882349F09091C00095FFFCCF8093C600B7
:101C300031968491F5CFEBEFF3E08491882341F066
:101C40009091C00095FFFCCF8093C6003196F5CFF0
:101C50008091C00085FFFCCF8AE08093C600FE0122
:101C60008491E6E4F4E0882349F09091C00095FF68
:101C7000FCCF8093C60031968491F5CF4091AA1194
:101C80005091AB116091AC117091AD1182EF93E066
:101C90000E94F7174091AE115091AF116091B011B1
:101CA0007091B1118FEE93E00E94F7174091B2113D
:101CB0005091B3116091B4117091B5118CEE93E015
:101CC0000E94F7174091B6115091B7116091B81169
:101CD0007091B91189EE93E00E94F7178091C000CE
:101CE00085FFFCCF8AE08093C600FE018491E6E484
:101CF000F4E0882349F09091C00095FFFCCF8093D9
:101D0000C60031968491F5CFEBECF3E08491882303
:101D100041F09091C00095FFFCCF8093C6003196B2
:101D2000F5CF8091C00085FFFCCF8AE08093C6008C
:101D3000FE018491E6E4F4E0882349F09091C0002C
:101D400095FFFCCF8093C60031968491F5CF4091EA
:101D50008A1150918B1160918C1170918D1182ECD0
:101D600093E00E94081840918E1150918F1160915C
:101D70009011709191118FEB93E00E94081840919F
:101D800092115091931160919411709195118CEB77
:101D900093E00E940818409196115091971160911C
:101DA00098117091991189EB93E00E940818809125
:101DB000C00085FFFCCF8AE08093C600FE018491BD
:101DC000E6E4F4E0882349F09091C00095FFFCCF51
:101DD0008093C60031968491F5CFE4E8F3E08491D6
:101DE000882341F09091C00095FFFCCF8093C600FE
:101DF0003196F5CF8091C00085FFFCCF8AE08093BB
:101E0000C600FE018491E6E4F4E0882349F0909155
:101E1000C00095FFFCCF8093C60031968491F5CF2A
:101E200040918211509183116091841170918511BC
:101E30008BE793E00E94F71740917E1150917F113C
:101E4000609180117091811188E793E00E94F717EB
:101E50008091C00085FFFCCF8AE08093C600FE0120
:101E60008491E6E4F4E0882349F09091C00095FF66
:101E7000FCCF8093C60031968491F5CFE5ECF2E07B
:101E80008491882341F09091C00095FFFCCF80930E
:101E9000C6003196F5CF8091C00085FFFCCF8AE067
:101EA0008093C600FE018491E6E4F4E0882349F0C3
:101EB0009091C00095FFFCCF8093C600319684912D
:101EC000F5CF4091861150918711609188117091E2
:101ED00089118CEB92E00E94F71740916E1150919E
:101EE0006F11609170117091711189EB92E00E94F5
:101EF000F7174091BA115091BB116091BC117091CC
:101F0000BD1186EB92E00E94081840917A11509121
:101F10007B1160917C1170917D1183EB92E00E94A6
:101F2000F717409176115091771160917811709167
:101F3000791180EB92E00E94F71740917211509155
:101F4000731160917411709175118DEA92E00E9485
:101F5000F7178091C00085FFFCCF8AE08093C60010
:101F6000FE018491E6E4F4E0882349F09091C000FA
:101F700095FFFCCF8093C60031968491F5CFEBE9B5
:101F8000F2E08491882341F09091C00095FFFCCF4E
:101F90008093C6003196F5CF8091C00085FFFCCFBD
:101FA0008AE08093C600FE018491E6E4F4E0882391
:101FB00049F09091C00095FFFCCF8093C600319608
:101FC0008491F5CF409136075091370760913807DB
:101FD0007091390782E992E00E94F71740913A0721
:101FE00050913B0760913C0770913D078FE892E06C
:101FF000FED740913E0750913F0760914007709196
:1020000041078CE892E0F3D78091C00085FFFCCFB8
:102010008AE08093C600FE018491E6E4F4E0882320
:1020200049F09091C00095FFFCCF8093C600319697
:102030008491F5CFEEE7F2E08491882341F090910E
:10204000C00095FFFCCF8093C6003196F5CF8091FC
:10205000C00085FFFCCF8AE08093C600FE01C491DA
:10206000E6E4F4E0CC2349F08091C00085FFFCCF8A
:10207000C093C6003196C491F5CF40917102509142
:102080007202609173027091740284E792E0AFD79C
:1020900060916D0270916E0280916F02909170025A
:1020A0000E948979AB01BC0181E792E0A0D76091E1
:1020B000690270916A0280916B0290916C020E9499
:1020C0009579AB01BC018EE692E091D78091C0007A
:1020D00085FFFCCF8AE08093C600DF91CF91089501
:1020E000AF92BF92CF92DF92EF92FF920F931F9326
:1020F000CF93DF93CDB7DEB7E0970FB6F894DEBF8E
:102100000FBECDBF80E1E9E7F2E0DE0191960190DC
:102110000D928A95E1F780E1E9E8F2E0DE0151965F
:1021200001900D928A95E1F780E1E9E9F2E0DE01A4
:10213000119601900D928A95E1F76E0181E2C80E29
:10214000D11C0AE911E17E01E1E1EE0EF11C6AEA1F
:1021500071E1AE014F5F5F4F9AE8A92E91E1B92E70
:1021600020E030E0F60181919191A191B1916F0150
:10217000F80181939193A193B1938F01F70181911C
:102180009191A191B1917F01FB0181939193A193D1
:10219000B193BF01FA0181919191A191B191AF01E8
:1021A000F50181939193A193B1935F012F5F3F4F0D
:1021B00024303105B9F60E94A86580E090E0A8E4DB
:1021C000B4E48093821190938311A0938411B0930F
:1021D000851180937E1190937F11A0938011B0930D
:1021E000811110928611109287111092881110920D
:1021F000891180E29EE4A0E0B0E08093BA11909350
:10220000BB11A093BC11B093BD1110926E1110922E
:102210006F11109270111092711180E090E0A0E2A5
:10222000B1E480937A1190937B11A0937C11B093C9
:102230007D118DEC9CECACECBEE380937611909319
:102240007711A0937811B0937911C12CD12C80E82B
:10225000E82E8FE3F82EC0927211D0927311E092A3
:102260007411F092751110923E0710923F07109270
:1022700040071092410710923A0710923B071092C4
:102280003C0710923D0710923607109237071092C4
:1022900038071092390787ED93EAA5E0B2E48093FE
:1022A000710290937202A0937302B093740266EF6E
:1022B00078E28CEB9FE30E94837960936D027093C8
:1022C0006E0280936F02909370026FE175E48DE36C
:1022D00093E40E948F796093690270936A028093FD
:1022E0006B0290936C020E94BC70C0926502D09207
:1022F0006602E0926702F0926802E6E4F4E08491FC
:10230000882341F09091C00095FFFCCF8093C600D8
:102310003196F5CFE2E3F2E08491882341F0909189
:10232000C00095FFFCCF8093C6003196F5CF809119
:10233000C00085FFFCCF8AE08093C600E0960FB610
:10234000F894DEBF0FBECDBFDF91CF911F910F91EB
:10235000FF90EF90DF90CF90BF90AF900895CF9314
:10236000DF93CDB7DEB768970FB6F894DEBF0FBE28
:10237000CDBF84E690E0988F8F8B86E591E3A0E354
:10238000B0E089839A83AB83BC8344E0BE016B5F7A
:102390007F4FCE014796ABDA43E050E0BE016B5F62
:1023A0007F4FCE0101960E94A292892B09F0B7C0FF
:1023B00040E16AE971E1CE01479699DA40E16AEAC3
:1023C00071E1CE01479693DA40E16AE871E1CE010E
:1023D00047968DDA0E94A86544E062E871E1CE017B
:1023E000479685DA44E06EE771E1CE0147967FDAE1
:1023F00044E066E871E1CE01479679DA44E06EE6A2
:1024000071E1CE01479673DA44E06AEB71E1CE01E7
:1024100047966DDA44E06AE771E1CE01479667DAE4
:1024200044E066E771E1CE01479661DA44E062E795
:1024300071E1CE0147965BDA4CE066E377E0CE01CE
:10244000479655DA42E0BE016B5E7F4FCE0147965C
:102450004EDA42E0BE016D5E7F4FCE01479647DA0D
:1024600042E0BE016F5E7F4FCE01479640DA42E008
:10247000BE01615F7F4FCE01479639DA42E0BE016F
:10248000635F7F4FCE01479632DA42E0BE01655F5F
:102490007F4FCE0147962BDA44E063E277E0CE012E
:1024A000479625DA44E061E772E0CE0147961FDAED
:1024B00044E06DE672E0CE01479619DA44E069E641
:1024C00072E0CE01479613DA42E0BE01675F7F4FAC
:1024D000CE0147960CDA0E94BC70E6E4F4E08491E9
:1024E000882341F09091C00095FFFCCF8093C600F7
:1024F0003196F5CFE4E5F2E08491882341F09091A4
:10250000C00095FFFCCF8093C6003196F5CF809137
:10251000C00085FFFCCF8AE08093C60001C0E0DDEB
:1025200011DB68960FB6F894DEBF0FBECDBFDF910A
:10253000CF9108951F920F920FB60F9211240BB6F0
:102540000F922F933F934F935F936F938F939F932C
:10255000EF93FF936091D6002091BF043091C004A7
:10256000C90101968F7799274091C1045091C20407
:102570008417950741F0F901E15CFB4F608390936C
:10258000C0048093BF04FF91EF919F918F916F9151
:102590005F914F913F912F910F900BBE0F900FBE07
:1025A0000F901F9018959A01AB01211581EE380705
:1025B0004105510549F182E08093D00060E079E067
:1025C0008DE390E00E943D8D215031094109510970
:1025D000CA01B90122E030E040E050E00E943D8DA8
:1025E0003093D5002093D4008091D10080618093F6
:1025F000D1008091D10088608093D1008091D1007A
:1026000080688093D10008951092D00020E130E0DE
:10261000E7CF2091C1043091C2048091BF04909112
:10262000C0048217930771F0F901E15CFB4F8081D0
:102630002F5F3F4F2F7733273093C2042093C1047D
:1026400090E008958FEF9FEF08954F925F926F9201
:102650007F928F929F92AF92BF92CF92DF92EF9232
:10266000FF920F931F93CF93DF93CDB7DEB7A09761
:102670000FB6F894DEBF0FBECDBF5C01411551050A
:1026800061057105E9F420E030E040E350E060E0EE
:1026900070E0A0960FB6F894DEBF0FBECDBFDF91FD
:1026A000CF911F910F91FF90EF90DF90CF90BF904F
:1026B000AF909F908F907F906F905F904F905BC096
:1026C0008E010F5F1F4FC12CD12C76014801422E85
:1026D000512C612C712C8FEFC81AD80AE80AF80A1D
:1026E000CB01BA01A30192010E941B8DCA01F8011E
:1026F00061938F01A901BC01411551056105710567
:1027000051F7F1E0CF1AD108E108F108F401EC0D1E
:10271000FD1D80818A3010F440E301C047E3480F7B
:10272000552747FD5095652F752F20E030E0C501F6
:1027300022D081E0C81AD108E108F108EFEFCE16E7
:10274000DE06EE06FE0611F7A0960FB6F894DEBF81
:102750000FBECDBFDF91CF911F910F91FF90EF90F2
:10276000DF90CF90BF90AF909F908F907F906F90B1
:102770005F904F9008952115310539F48091D00074
:1027800085FFFCCF4093D60008952A30310509F427
:1027900022C05BCFCF93DF93EC0120E030E04DE02F
:1027A00050E060E070E0E7DF20E030E04AE050E039
:1027B00060E070E0CE01DF91CF91DDCFFB01219190
:1027C000BF01222339F03091D00035FFFCCF209398
:1027D000D600F4CFDFCFCF92DF92EF92FF92CF936C
:1027E000DF93EC016A017B0177FF0FC020E030E04E
:1027F0004DE250E060E070E0BEDFF094E094D094F1
:10280000C094C11CD11CE11CF11C2AE0B701A60137
:10281000CE01DF91CF91FF90EF90DF90CF9015CF59
:102820001F920F920FB60F9211240BB60F922F9397
:102830003F934F935F936F938F939F93EF93FF9388
:102840006091C6002091440530914505C90101966B
:102850008F77992740914605509147058417950732
:1028600041F0F901EC53FB4F608390934505809351
:102870004405FF91EF919F918F916F915F914F91DF
:102880003F912F910F900BBE0F900FBE0F901F9096
:1028900018959A01AB01211581EE380741055105C4
:1028A00049F182E08093C00060E079E08DE390E040
:1028B0000E943D8D2150310941095109CA01B901D8
:1028C00022E030E040E050E00E943D8D3093C500B2
:1028D0002093C4008091C10080618093C1008091E9
:1028E000C10088608093C1008091C100806880939E
:1028F000C10008951092C00020E130E0E7CF2091A0
:102900004605309147058091440590914505821711
:10291000930771F0F901EC53FB4F80812F5F3F4F1C
:102920002F773327309347052093460590E008958D
:102930008FEF9FEF08958091460590914705909302
:1029400045058093440508954F925F926F927F9260
:102950008F929F92AF92BF92CF92DF92EF92FF92AF
:102960000F931F93CF93DF93CDB7DEB7A0970FB62A
:10297000F894DEBF0FBECDBF5C0141155105610566
:102980007105E9F420E030E040E350E060E070E001
:10299000A0960FB6F894DEBF0FBECDBFDF91CF91EA
:1029A0001F910F91FF90EF90DF90CF90BF90AF906D
:1029B0009F908F907F906F905F904F905BC08E0143
:1029C0000F5F1F4FC12CD12C76014801422E512C94
:1029D000612C712C8FEFC81AD80AE80AF80ACB01CB
:1029E000BA01A30192010E941B8DCA01F8016193F3
:1029F0008F01A901BC01411551056105710551F710
:102A0000F1E0CF1AD108E108F108F401EC0DFD1D49
:102A100080818A3010F440E301C047E3480F552716
:102A200047FD5095652F752F20E030E0C50122D07D
:102A300081E0C81AD108E108F108EFEFCE16DE06F2
:102A4000EE06FE0611F7A0960FB6F894DEBF0FBE95
:102A5000CDBFDF91CF911F910F91FF90EF90DF904D
:102A6000CF90BF90AF909F908F907F906F905F902E
:102A70004F9008952115310539F48091C00085FFEC
:102A8000FCCF4093C60008952A30310509F41CC0DC
:102A90005BCFCF93DF93EC0120E030E04DE050E0DE
:102AA00060E070E0E7DF20E030E04AE050E060E026
:102AB00070E0CE01DF91CF91DDCF9A01AB016627A7
:102AC00057FD6095762FD6CFCF92DF92EF92FF928F
:102AD000CF93DF93EC016A017B0177FF0FC020E009
:102AE00030E04DE250E060E070E0C4DFF094E0944C
:102AF000D094C094C11CD11CE11CF11C2AE0B70188
:102B0000A601CE01DF91CF91FF90EF90DF90CF90A3
:102B10001BCF2115310539F48091C00085FFFCCF12
:102B20004093C600089510CF9A01462F50E060E010
:102B300070E0EFCFCF93DF93EC019A01AB0160E03F
:102B400070E0E7DFCE01DF91CF91A3CF8F929F920C
:102B5000AF92BF92CF92DF92EF92FF921F93CF93EB
:102B6000DF93EC016A017B01122F20E030E0A90124
:102B7000C701B6010E943E8987FF0CC020E030E00B
:102B80004DE250E060E070E0CE0174DFF7FAF094BF
:102B9000F7F8F094B12C60E070E080E09FE3B116AC
:102BA00041F020E030E040E251E40E944589B394D6
:102BB000F6CF9B01AC01C701B6010E9465886B018D
:102BC0007C010E94B2894B015C010E94DE899B015D
:102BD000AC01C701B6010E9464886B017C012AE048
:102BE000B501A401CE01B0DE112361F0ECE3F4E005
:102BF0008191882339F09091C00095FFFCCF80939C
:102C0000C600F6CF112319F120E030E040E251E494
:102C1000C701B6010E94138C6B017C010E94AD8933
:102C20004B01AA2497FCA094BA2CB501A401CE01B3
:102C30004BDFC501B4010E94E0899B01AC01C701D3
:102C4000B6010E9464886B017C011150DBCFDF91DB
:102C5000CF911F91FF90EF90DF90CF90BF90AF90FA
:102C60009F908F90089572CFFC0165917591859129
:102C7000949108952F923F924F925F926F927F921C
:102C80008F929F92AF92BF92CF92DF92EF92FF927C
:102C90000F931F93CF93DF9300D000D0CDB7DEB753
:102CA0005C01FC01E852F74F14919C01220F331F85
:102CB000220F331F3E832D83F901EE5BF84F108204
:102CC0001182128213822EE437E04AE457E066E470
:102CD00077E082E497E00E94DD64D501AA0FBB1F74
:102CE000FD01E05EFD4F2081318137FD0FC0AA0F4D
:102CF000BB1FAC5EBD4F6D917C91C901880F991FC0
:102D0000820F931F865B9A4F0E9455478D819E814B
:102D10008951974FA9DF6B017C01612F772767FDF0
:102D20007095872F972F0E94E0892B013C018D81A0
:102D30009E81805F984F4C0120E030E040EC5FE3E3
:102D4000C701B6010E94138CA30192010E94138C4B
:102D5000F40160837183828393832D813E81265C9D
:102D60003D4F3C832B83F901608171818281938186
:102D700060930F02709310028093110290931202DD
:102D800020E030E040E752E40E94458952E2C52E3F
:102D900057E0D52E7B018C012CE137E048E157E06C
:102DA00064E177E080E197E00E942E5B0E94896EEB
:102DB0002D813E812E5B384F3A832983F9011082A1
:102DC0001182128213822EE437E04AE457E066E46F
:102DD00077E082E497E00E94DD642D813E812552F8
:102DE000374F1901C90140DF9058A30192010E9499
:102DF000138CF401608371838283938320E030E03D
:102E000040E752E460910F0270911002809111022C
:102E1000909112020E9445897B018C012CE137E0E0
:102E200048E157E064E177E080E197E00E942E5BA3
:102E30000E94896EC10118DF9B01AC010E94658868
:102E4000A30192010E94138CF40160837183828339
:102E5000938320E030E040E05FE3EB81FC81608120
:102E60007181828193810E94138C60930F02709311
:102E70001002809311029093120220E030E040E7AC
:102E800052E40E9445897B018C012CE137E048E146
:102E900057E064E177E080E197E00E942E5B0E94BA
:102EA000896E8D819E818D50974FDEDE0D811E8152
:102EB0000A5C184FF80120813181428153810E94C0
:102EC0006588E981FA8160837183828393838D8130
:102ED0009E81855F964FC8DE2D813E81265D384FED
:102EE0007901F80120813181428153810E946588F6
:102EF000F70160837183828393838D819E818150EA
:102F0000974FB2DE2D813E812A5D3D4F7901F80158
:102F100020813181428153810E946588F70160835D
:102F2000718382839383E981FA8180819181A28177
:102F3000B381F40180839183A283B38310920F0243
:102F40001092100210921102109212020E947F66DB
:102F5000F501E95DF84F81E08083F501EE0FFF1F79
:102F6000DF01A05EBD4F2D913C9137FD27C0EE0FD4
:102F7000FF1FEA5EFD4F60817181C901880F991FB3
:102F8000820F931F865B9A4F26960FB6F894DEBF8A
:102F90000FBECDBFDF91CF911F910F91FF90EF90AA
:102FA000DF90CF90BF90AF909F908F907F906F9069
:102FB0005F904F903F902F900C94554726960FB6F8
:102FC000F894DEBF0FBECDBFDF91CF911F910F915F
:102FD000FF90EF90DF90CF90BF90AF909F908F9039
:102FE0007F906F905F904F903F902F900895FC01DD
:102FF0002491222341F03091C00035FFFCCF209373
:10300000C6000196F4CF22E030E083EC94E02BCEB2
:10301000FC012491222341F03091C00035FFFCCF08
:103020002093C6000196F4CF2AE030E083EC94E0D0
:1030300070CDCF93DF931F921F92CDB7DEB78091F3
:10304000B5129091B6129E012F5F3F4F009719F471
:103050002B5B324102C0281B390B3A8329838981BB
:103060009A810F900F90DF91CF910895209165057F
:1030700030916605243031050CF06AC04091670537
:103080005091680560E6649F9001659F300D1124A2
:10309000BC01C90181599A4F0E949B92E7E1F9E076
:1030A0008491882341F09091C00095FFFCCF8093DC
:1030B000C6003196F5CFEDECF8E08491882341F01D
:1030C0009091C00095FFFCCF8093C6003196F5CF5C
:1030D000809167059091680520E6289FF001299F5F
:1030E000F00D1124E159FA4F8191882339F0909124
:1030F000C00095FFFCCF8093C600F6CFEBECF8E064
:103100008491882341F09091C00095FFFCCF80937B
:10311000C6003196F5CF8091C00085FFFCCF8AE0D4
:103120008093C6008091670590916805019664E0E0
:1031300070E00E94088D90936805809367058091E8
:1031400065059091660501969093660580936505E7
:1031500008952091650530916605243031050CF005
:103160006AC0409167055091680560E6649F9001D0
:10317000659F300D1124BC01C90181599A4F0E94ED
:103180003692E7E1F9E08491882341F09091C00004
:1031900095FFFCCF8093C6003196F5CFE0ECF8E0C8
:1031A0008491882341F09091C00095FFFCCF8093DB
:1031B000C6003196F5CF809167059091680520E6AD
:1031C000289FF001299FF00D1124E159FA4F8191B8
:1031D000882339F09091C00095FFFCCF8093C60002
:1031E000F6CFEEEBF8E08491882341F09091C00097
:1031F00095FFFCCF8093C6003196F5CF8091C0003B
:1032000085FFFCCF8AE08093C6008091670590918E
:103210006805019664E070E00E94088D909368054F
:10322000809367058091650590916605019690935E
:103230006605809365050895269A2E9808950F9344
:103240001F93CF93DF936BE070E08AE495E00E94D8
:103250001D47C0E2D2E006E112E02991399137FD25
:103260000CC0F80160817181C901880F991F820F1C
:10327000931F865B9A4F0E9455470C5F1F4FF2E0E9
:10328000C632DF0751F7DF91CF911F910F9108955B
:10329000D3DF40E052EC61E070E083EC94E0F9DAD7
:1032A00040E052EC61E070E08EE394E07CD9E8EB22
:1032B000F8E08491882341F09091C00095FFFCCF05
:1032C0008093C6003196F5CF8091C00085FFFCCF7A
:1032D0008AE08093C60087E199E0FC0124912223D3
:1032E00041F03091C00035FFFCCF2093C6003196ED
:1032F000F5CF24B720FF14C0E0EBF8E0349133237E
:1033000041F04091C00045FFFCCF3093C60031969C
:10331000F5CF3091C00035FFFCCF3AE03093C600C6
:1033200021FF14C0E0EAF8E03491332341F04091EA
:10333000C00045FFFCCF3093C6003196F5CF3091E9
:10334000C00035FFFCCF3AE03093C60022FF14C026
:10335000EFE8F8E03491332341F04091C00045FF9D
:10336000FCCF3093C6003196F5CF3091C00035FFC9
:10337000FCCF3AE03093C60023FF14C0EFE7F8E03B
:103380003491332341F04091C00045FFFCCF30938E
:10339000C6003196F5CF3091C00035FFFCCF3AE042
:1033A0003093C60025FF14C0EFE6F8E024912223F5
:1033B00041F03091C00035FFFCCF2093C60031961C
:1033C000F5CF2091C00025FFFCCF2AE02093C60056
:1033D00014BEE7E6F8E02491222341F03091C000CA
:1033E00035FFFCCF2093C6003196F5CFE1E6F8E03B
:1033F0002491222341F03091C00035FFFCCF20936F
:10340000C6003196F5CF2091C00025FFFCCF2AE001
:103410002093C600FC012491E7E1F9E0222349F062
:103420003091C00035FFFCCF2093C6003196249127
:10343000F5CFE1E5F8E02491222341F03091C0007E
:1034400035FFFCCF2093C6003196F5CFECE3F8E0D2
:103450002491222341F03091C00035FFFCCF20930E
:10346000C6003196F5CFE0E3F8E02491222341F045
:103470003091C00035FFFCCF2093C6003196F5CFC8
:10348000E9E1F8E02491222341F03091C00035FFBA
:10349000FCCF2093C6003196F5CF2091C00025FFC8
:1034A000FCCF2AE02093C600EEE0F8E0249122232E
:1034B00041F03091C00035FFFCCF2093C60031961B
:1034C000F5CFE2E0F8E02491222341F03091C000F2
:1034D00035FFFCCF2093C6003196F5CF2091C00078
:1034E00025FFFCCF2AE02093C600FC018491E7E190
:1034F000F9E0882349F09091C00095FFFCCF8093BC
:10350000C60031968491F5CFE3EFF7E084918823EC
:1035100041F09091C00095FFFCCF8093C60031969A
:10352000F5CF87DD4AE050E0BC0183EC94E0C5DADA
:10353000ECEDF7E08491882341F09091C00095FF75
:10354000FCCF8093C6003196F5CF4AE050E060EDA5
:1035500074E083EC94E0B1DA8091C00085FFFCCF89
:103560008AE08093C60010926B0510926C05109251
:103570006D0510926E050E94AF110E94B7720E94F5
:10358000C8590E94E56D5BDE0E947584FFEF23ED54
:1035900080E3F15020408040E1F700C0000020E0CF
:1035A00030E04AE754E46091821170918311809178
:1035B0008411909185110E94418B181614F481E0BA
:1035C00001C089E50C949B7980915F05909160051D
:1035D00060E070E001960C948D8F80915F05909172
:1035E00060054AE050E060E070E001960C94F590D0
:1035F000682F772767FD70952091690530916A05DE
:1036000040E6429FC001439F900D112481599A4F7B
:103610000E9490929093600580935F0521E0892B32
:1036200009F420E0822F08950E94DD8460935B05F9
:1036300070935C0580935D0590935E05E09169054C
:10364000F0916A05E559FA4F8081811114C0E1EECD
:10365000F4E08491882341F09091C00095FFFCCF65
:103660008093C6003196F5CF8091C00085FFFCCFD6
:103670008AE08093C600089583EC94E05CD9E4EE80
:10368000F4E08491882341F09091C00095FFFCCF35
:103690008093C6003196F5CF4091F4065091F5061F
:1036A0006091F6067091F7064F5F5F4F6F4F7F4F47
:1036B0002AE030E083EC94E0DDD98091C00085FF02
:1036C000FCCF8AE08093C600AFCF2F923F924F92FB
:1036D0005F926F927F928F929F92AF92BF92CF92A2
:1036E000DF92EF92FF920F931F93CF93DF93CDB7AB
:1036F000DEB76E970FB6F894DEBF0FBECDBF70E693
:10370000972E04E010E0EFE9EE2EE6E0FE2EFAE060
:103710008F2EA5E1CA2EA7E0DA2E7724739480912C
:103720004405909145052091460530914705821B3F
:10373000930B8F779927892B09F41BC2809165051C
:103740009091660504970CF014C283EC94E0D7D8EE
:103750008093640520916205309163058A3061F0A1
:103760008D3051F08A3321F490916105992321F035
:103770002F3531050CF420C12115310509F43AC16A
:103780008091670590916805989E5001999EB00CB4
:103790001124F501E20FF31FE159FA4F1082209135
:1037A0006105211104C1FC01E559FA4F1082950110
:1037B00021593A4F29016EE470E0C9010E949092AC
:1037C0000097E9F19093600580935F05841995094E
:1037D0008A0D9B1D4AE050E060E070E080599A4FEE
:1037E0000E94F5906093F8067093F9068093FA06AC
:1037F0009093FB062091F4063091F5064091F60671
:103800005091F7062F5F3F4F4F4F5F4FA0906705D6
:10381000B0906805621773078407950709F4EDC037
:103820009A9CC0019B9C900D11246EEB77E081590E
:103830009A4F0E945592892B09F0DFC06DC16AE250
:1038400070E0C2010E949092892B09F443C0EDE11F
:10385000F9E08491882341F09091C00095FFFCCF5E
:103860008093C6003196F5CFE8E1F7E08491882394
:1038700041F09091C00095FFFCCF8093C600319637
:10388000F5CF4091F4065091F5066091F6067091DF
:10389000F7062AE030E083EC94E0ECD88091C00099
:1038A00085FFFCCF8AE08093C600109263051092DA
:1038B0006205C1C28091F8069091F906A091FA06BE
:1038C000B091FB068093F4069093F506A093F6065C
:1038D000B093F7068091670590916805989E500116
:1038E000999EB00C1124C50181599A4F2C0167E4AF
:1038F00070E00E949092009709F444C09093600594
:1039000080935F05841995098A0D9B1D60E070E026
:1039100080599A4F0E948D8F0E94AD896430710545
:1039200088F580914D05811118C08091580781114B
:1039300029C0F6018491E5E1F7E0882349F09091F0
:10394000C00095FFFCCF8093C60031968491F5CFDF
:103950008091C00085FFFCCF13C0F7018491EFE98F
:10396000F6E0882349F09091C00095FFFCCF80934A
:10397000C60031968491F5CF8091C00085FFFCCFC1
:103980008092C60080916705909168050196B80104
:103990000E94088D90936805809367058091650566
:1039A0009091660501969093660580936505109247
:1039B000630510926205B3CE8B3311F470926105EA
:1039C000909161059111ABCE4091670550916805CA
:1039D000B9016F5F7F4F7093630560936205949E9A
:1039E000F001959EF00D1124E20FF31FE159FA4FFB
:1039F000808395CE109261051EC29A9C20019B9CEB
:103A0000500C1124C20181599A4F5C016AE270E0A6
:103A10000E949092009781F5EDE1F9E0849188236E
:103A200041F09091C00095FFFCCF8093C600319685
:103A3000F5CFE2E4F7E08491882341F09091C00053
:103A400095FFFCCF8093C6003196F5CF4091F406E8
:103A50005091F5066091F6067091F7062AE030E085
:103A600083EC94E007D88091C00085FFFCCF8AE00A
:103A70008093C60001DE19CF20E0612CF201E20F35
:103A8000F11DE159FA4F30813A3219F02F5F632668
:103A9000F5CF9093600580935F058A199B09840D8B
:103AA000951D60E070E080599A4F0E948D8F0E94B2
:103AB000AD89262D30E02617370709F4FBCEEDE15E
:103AC000F9E08491882341F09091C00095FFFCCFEC
:103AD0008093C6003196F5CFECE6F7E08491882319
:103AE00041F09091C00095FFFCCF8093C6003196C5
:103AF000F5CF4091F4065091F5066091F60670916D
:103B0000F7062AE030E083EC94E00E943A158091B9
:103B1000C00085FFFCCFABCFEDE1F9E084918823B5
:103B200041F09091C00095FFFCCF8093C600319684
:103B3000F5CFEBE8F7E08491882341F09091C00045
:103B400095FFFCCF8093C6003196F5CF4091F406E7
:103B50005091F5066091F6067091F7062AE030E084
:103B600083EC94E00E943A158091C00085FFFCCF61
:103B70007ECF80915A07882309F45DC18091620548
:103B800090916305892B09F056C18091650590914C
:103B90006605892B11F4109248055CE3C52ED12CE3
:103BA000E12CF12C60E1462E6EE0562E612C712C3A
:103BB0009E012F5F3F4F190100E611E04091DB09A4
:103BC0005091DC096091DD097091DE098091D30983
:103BD0009091D409A091D509B091D60948175907F9
:103BE0006A077B0708F027C18091650590916605FB
:103BF00004970CF020C18091480581111CC180916F
:103C00002E0990912F09A0913009B091310980932C
:103C1000DB099093DC09A093DD09B093DE0986E20D
:103C200099E00E944D3A482F809364058A30B9F09C
:103C30004D30A9F0433229F420916105211103C0D0
:103C40000EC04A33C9F320916205309163052F35C8
:103C500031052CF48F3F5FEF950709F0CEC04091FE
:103C6000DB095091DC096091DD097091DE098091DA
:103C7000D3099091D409A091D509B091D6094817DC
:103C800059076A077B0708F47EC0ECE8F6E08491E8
:103C9000882341F09091C00095FFFCCF8093C6002F
:103CA0003196F5CF8091C00085FFFCCFFAE0F0930C
:103CB000C6000E94DD8460934F0570935005809389
:103CC0005105909352058090530590905405A09013
:103CD0005505B0905605681979098A099B0928EE9F
:103CE00033E040E050E00E941B8D49015A01CA01B7
:103CF000B901A70196010E941B8DCA01B901A70154
:103D000096010E941B8D7F936F93C501B401A3019F
:103D100092010E941B8D3F932F93A8E7B6E0BF93BB
:103D2000AF933F922F920E94BF92E7E1F9E0849116
:103D30000FB6F894DEBF0FBECDBF882349F0909137
:103D4000C00095FFFCCF8093C60031968491F5CFDB
:103D5000F1018191882339F09091C00095FFFCCF4B
:103D60008093C600F6CF8091C00085FFFCCF3AE07B
:103D70003093C60088E597E00E94865261E088E5AE
:103D800097E00E94C55080916405833211F410932E
:103D9000480520916205309163052115310509F42C
:103DA00029CE8091670590916805089FF001099FD1
:103DB000F00D1124E20FF31FE159FA4F1082FC01BC
:103DC000E559FA4F108320916505309166052F5F04
:103DD0003F4F3093660520936505019664E070E0DF
:103DE0000E94088D90936805809367051092610585
:103DF0001092630510926205E1CE4B3311F41093DB
:103E00006105409161054111D7CE40916705509100
:103E10006805B9016F5F7F4F70936305609362051A
:103E2000049FF001059FF00D1124E20FF31FE159EB
:103E3000FA4F8083C3CE6E960FB6F894DEBF0FBEE6
:103E4000CDBFDF91CF911F910F91FF90EF90DF9049
:103E5000CF90BF90AF909F908F907F906F905F902A
:103E60004F903F902F9008958F929F92AF92BF9264
:103E7000CF92DF92EF92FF920F931F93CF93DF9336
:103E8000BCECEB2EB3E0FB2E02E417E0C0E1D7E080
:103E900084E5C82E87E0D82EF70181917F01A8DB49
:103EA000882311F191DB4B015C01F60180818111C6
:103EB00003C06091EF0601C061E070E080E090E037
:103EC0000E94E089F80120813181428153810E9462
:103ED000138C9B01AC01C501B4010E946588688305
:103EE00079838A839B8309C0F80180819181A281B3
:103EF000B38188839983AA83BB830C5F1F4F249669
:103F0000FFEFCF1ADF0A80EDE81683E0F80621F60E
:103F100086E46EDB8823D1F057DB6B017C01609374
:103F2000000770930107809302079093030720E036
:103F300030E0A9010E94418B181644F4C0920F0290
:103F4000D0921002E0921102F0921202DF91CF9112
:103F50001F910F91FF90EF90DF90CF90BF90AF90A7
:103F60009F908F90089580DF89E442DB882351F091
:103F70002BDB6093040770930507809306079093EB
:103F8000070708C010920407109205071092060751
:103F9000109207078AE42CDB882351F015DB60932D
:103FA00008077093090780930A0790930B070895F9
:103FB000109208071092090710920A0710920B0737
:103FC0000895CF92DF92EF92FF92CF93DF93EC01AF
:103FD000C0902A07D0902B07E0902C07F0902D0777
:103FE000A7019601688179818A819B810E943E891F
:103FF00087FF04C0C882D982EA82FB82C0902E0764
:10400000D0902F07E0903007F0903107A70196017C
:104010006C817D818E819F810E943E8987FF04C0D3
:10402000CC82DD82EE82FF82C0903207D0903307CF
:10403000E0903407F0903507A701960168857985EF
:104040008A859B850E943E8987FF04C0C886D986E1
:10405000EA86FB86C0902602D0902702E0902802D4
:10406000F0902902A7019601688179818A819B815C
:104070000E94418B181624F4C882D982EA82FB82FE
:10408000C0902A02D0902B02E0902C02F0902D02DA
:10409000A70196016C817D818E819F810E94418B59
:1040A000181624F4CC82DD82EE82FF82C0902E02AC
:1040B000D0902F02E0903002F0903102A7019601DB
:1040C000688579858A859B850E94418B181624F422
:1040D000C886D986EA86FB86DF91CF91FF90EF9064
:1040E000DF90CF900895CF92DF92EF92FF920F93DF
:1040F0001F9380E197E065DF0E94DD8460935B059C
:1041000070935C0580935D0590935E052091100788
:1041100030911107409112075091130760914207A7
:104120007091430780914407909145070E943E8912
:10413000811179C02091140730911507409116071D
:104140005091170760914607709147078091480783
:10415000909149070E943E89811165C020E030E0BE
:1041600040E752E460910F027091100280911102B9
:10417000909112020E94458922E2C22E27E0D22E9F
:104180007B018C012CE137E048E157E064E177E006
:1041900080E197E00E942E5B8091100790911107BB
:1041A000A0911207B09113078093420790934307A1
:1041B000A0934407B0934507809114079091150789
:1041C000A0911607B0911707809346079093470771
:1041D000A0934807B0934907809118079091190759
:1041E000A0911A07B0911B0780934A0790934B0741
:1041F000A0934C07B0934D0780911C0790911D0729
:10420000A0911E07B0911F0780934E0790934F0710
:10421000A0935007B09351071F910F91FF90EF901B
:10422000DF90CF900895609138027091390288270D
:1042300077FD8095982F0E94E08920910F023091A0
:10424000100240911102509112020E94138C20E042
:1042500030E040E752E40E94458920E030E048EC3D
:1042600052E488CFAF92BF92CF92DF92EF92FF924B
:104270000F931F93CF93DF93D82F2091080730918E
:10428000090740910A0750910B076091040770914C
:10429000050780910607909107070E944E8BC62F55
:1042A000172F082FF92E6091380270913902882754
:1042B00077FD8095982F0E94E08920910F02309120
:1042C000100240911102509112020E94138C20E0C2
:1042D00030E040E752E40E94458920E030E048ECBD
:1042E00052E40E944589209122072F93DF93FF9289
:1042F0000F931F93CF935B016C0132E0E32E01E03B
:1043000020E044E057E060E177E082E497E00E943B
:1043100001538091100790911107A0911207B0915D
:1043200013078093420790934307A0934407B093E9
:1043300045078091140790911507A0911607B09139
:1043400017078093460790934707A0934807B093B9
:1043500049078091180790911907A0911A07B09109
:104360001B0780934A0790934B07A0934C07B09389
:104370004D0780911C0790911D07A0911E07B091D9
:104380001F0780934E0790934F07A0935007B09359
:1043900051070E94DD8460935B0570935C058093F8
:1043A0005D0590935E050F900F900F900F900F900A
:1043B0000F90DF91CF911F910F91FF90EF90DF90C1
:1043C000CF90BF90AF900895F8940E9453738E9A47
:1043D000109227079FB7F89480910801826080931C
:1043E00008019FBF109228079FB7F8948091080199
:1043F0008061809308019FBF109229078B9A60E02B
:104400008CE00E94A986EDE1F9E08491882341F0D7
:104410009091C00095FFFCCF8093C6003196F5CFF8
:10442000E2ECF4E08491882341F09091C00095FF84
:10443000FCCF8093C6003196F5CF8091C00085FFF8
:10444000FCCF8AE08093C600FFCFCF92DF92EF923D
:10445000FF920F931F930E94DD84009157051091E6
:1044600058052091590530915A05C0905B05D090B0
:104470005C05E0905D05F0905E056C197D098E0984
:104480009F09061717072807390728F4012B022B65
:10449000032B09F099DF80910B0290910C02A091FF
:1044A0000D02B0910E02892B8A2B8B2B09F10E94F1
:1044B000DD8400915B0510915C0520915D053091D4
:1044C0005E05601B710B820B930B00910B02109128
:1044D0000C0220910D0230910E02061717072807D3
:1044E000390730F49091680C8091670C981741F06F
:1044F0001F910F91FF90EF90DF90CF900C94115B84
:104500008E9A109227079FB7F894809108018260D5
:10451000809308019FBF109228079FB7F89480915D
:1045200008018061809308019FBF109229078B9A30
:10453000DFCF0E94537380914D05811134C081E01B
:1045400080934D058091F4069091F506A091F606B2
:10455000B091F7068093F0069093F106A093F206CF
:10456000B093F306EDE1F9E08491882341F0909156
:10457000C00095FFFCCF8093C6003196F5CFECE4E8
:10458000F4E08491882341F09091C00095FFFCCF26
:104590008093C6003196F5CF8091C00085FFFCCF97
:1045A0008AE08093C600089580914D050895CF93C9
:1045B000DF93EC018091220780934E0584E518D8A3
:1045C000811102C080E065C00E94E41A0E94B28995
:1045D00060934E056623B1F3E7E1F9E08491882307
:1045E00041F09091C00095FFFCCF8093C6003196BA
:1045F000F5CFC936D10599F034F4C836D105C9F5DF
:10460000EEEEF2E015C0CD36D10531F0CA3DD10550
:1046100081F5E9EAF2E02AC0E0ECF2E01DC0E7ED46
:10462000F2E010C09091C00095FFFCCF8093C600CF
:1046300081918111F7CF1DC09091C00095FFFCCFF3
:104640008093C60081918111F7CF13C09091C00073
:1046500095FFFCCF8093C60081918111F7CF09C0EF
:104660009091C00095FFFCCF8093C600819181118D
:10467000F7CF40E050E060914E0583EC94E00E945B
:1046800094158091C00085FFFCCF8AE08093C6001E
:1046900081E0DF91CF9108953F924F925F926F92A8
:1046A0007F928F929F92AF92BF92CF92DF92EF92C2
:1046B000FF920F931F93CF93DF93CDB7DEB7A497ED
:1046C0000FB6F894DEBF0FBECDBF87E40E94F81A84
:1046D000882309F409C20E94E41A0E94AD8964305B
:1046E0007105B1F144F46230710511F144F577FFC1
:1046F00017C00C9401336A35710509F4A1C134F473
:104700006C31710509F467C00C9401336B35710588
:1047100009F49AC16C35710509F49BC10C940133FD
:1047200080914D05811104C09FDBDDDC0C948E343B
:1047300080914D05811103C016DC81E006C0809197
:104740004D05811105C00FDC80E08CDD0C948E34AA
:1047500080E50E94F81A882339F00E94E41A0E942A
:10476000B2894B015C0103C0812C912C540183E57B
:104770000E94F81A882361F00E94E41A20E030E0D9
:104780004AE754E40E94138C0E94B2894B015C01F9
:104790000E94896E0E94DD846B017C01C80CD91CCB
:1047A000EA1CFB1C0E94DD8460935B0570935C0532
:1047B00080935D0590935E050E94DD846C157D05F8
:1047C0008E059F0510F00C9401330E94DE703DDED3
:1047D0000E94E979F1CF80910F0290911002A0918F
:1047E0001102B09112028093FC069093FD06A093F3
:1047F000FE06B093FF0680913802909139029093A3
:1048000053078093520784E690E090933902809397
:1048100038020E94DD8460935B0570935C05809391
:104820005D0590935E0581E00E9486668091420757
:1048300090914307A0914407B091450780931007DA
:1048400090931107A0931207B09313078091460726
:1048500090914707A0914807B091490780931407AA
:1048600090931507A0931607B093170780914A07F6
:1048700090914B07A0914C07B0914D07809318077A
:1048800090931907A0931A07B0931B0780914E07C6
:1048900090914F07A0915007B091510780931C074A
:1048A00090931D07A0931E07B0931F0710920F024D
:1048B00010921002109211021092120288E50E94CA
:1048C000F81A882311F090E00AC089E50E94F81ACE
:1048D0008111F9CF8AE50E94F81A91E09827909308
:1048E000130291110C94043388E50E94F81A811187
:1048F0000C9404338091130281110C940A3389E5DE
:104900000E94F81A81110C940A3388E50E94F81A63
:104910008823D1F00E94ED1A672B682B692BA1F038
:104920000E94E41A209136073091370740913807EA
:10493000509139070E94658860934207709343073E
:10494000809344079093450789E50E94F81A8823CD
:10495000D1F00E94ED1A672B682B692BA1F00E9401
:10496000E41A20913A0730913B0740913C0750915F
:104970003D070E94658860934607709347078093C0
:104980004807909349078091130281110C941033CA
:104990008AE50E94F81A81110C9410338AE50E946E
:1049A000F81A8823D1F00E94ED1A672B682B692B27
:1049B000A1F00E94E41A20913E0730913F074091F8
:1049C0004007509141070E94658860934A077093A1
:1049D0004B0780934C0790934D072EE437E04AE451
:1049E00057E066E477E082E497E00E94DD6480E0CF
:1049F0000E9486668091FC069091FD06A091FE06BD
:104A0000B091FF0680930F0290931002A0931102C1
:104A1000B0931202809152079091530790933902FC
:104A2000809338020E94DD8460935B0570935C057F
:104A300080935D0590935E050E947F660C94013320
:104A40001092EF060C94013381E08093EF060C94F2
:104A5000013385E40E94F81A811102C00E94896E18
:104A60007CECC72E73E0D72EE6E3EE2EE7E0FE2EB9
:104A700002E417E0B12CF60181916F010E94F81A4F
:104A8000882339F1F3E0BF120CC00E94E41AF80148
:104A900060837183828393838EE497E00E948265B2
:104AA00018C00E94E41AF7012081318142815381AC
:104AB0000E946588F80160837183828393832EE46A
:104AC00037E04AE457E066E477E082E497E00E944A
:104AD000DD64B394F4E0EF0EF11C0C5F1F4F24E093
:104AE000B212C9CF0C9401338DE40E94F81A8823C6
:104AF00011F40C9430320E94E41A0E94AD8962379E
:104B0000710509F480C70CF07CC06032710509F4AE
:104B100026C2DCF56831710509F482C1DCF4643128
:104B2000710509F430C154F46131710509F417C1FC
:104B30006231710509F47CC60C940133663171054C
:104B400009F44FC10CF053C188E597E00E94854AF3
:104B50000C9401336B31710509F486C154F4693149
:104B6000710509F46DC16A31710509F46FC10C94C6
:104B700001336E31710509F4B3C10CF08EC26C3192
:104B8000710509F477C10C9401336535710509F499
:104B900085C6E4F46135710509F432C66CF46A32F5
:104BA000710509F4FFC26035710511F00C940133F1
:104BB000269A2E980C9401336335710509F434C696
:104BC0000CF036C6109257070C9401336936710504
:104BD00009F441C354F46C35710509F475C668369F
:104BE000710509F40AC30C9401336B36710509F49D
:104BF00002C60CF4D2C56D36710509F438C40C94A4
:104C000001336C3D710511F40C9425300CF04DC04E
:104C10006E3B710509F4C6C4DCF46737710509F40D
:104C20009BC054F46337710509F4CFC6653771052D
:104C300009F4D9C60C9401336937710509F4C6C764
:104C40000CF4C0C76C38710509F4F4C20C9401333C
:104C50006B3C710511F40C94742F94F4683C71054D
:104C600011F40C94DB2E693C710511F00C940133A6
:104C70000CEC13E0FAE8EF2EF1E1FF2E0C945A2F22
:104C80006D3C710511F40C94B02F14F40C94902F1A
:104C90006E3C710511F00C9401330CEC13E076E3DB
:104CA000E72E77E0F72E0C941630603931E0730769
:104CB00011F40C94123234F5683191E0790711F453
:104CC0000C946E3064F46D3D710511F40C94343025
:104CD000623E710511F40C9443300C9401336E3232
:104CE000F1E07F0711F40C94CC316F3221E07207B0
:104CF00011F40C94DA316D32714011F00C940133DF
:104D00000C940631663F81E0780711F40C94183258
:104D10007CF4643FE1E07E0711F40C941532653FAA
:104D2000714011F00C9401330E94AF110C940133C7
:104D3000603A23E0720709F47CC1673E33E07307F1
:104D400011F40C941B32673F714011F00C94013345
:104D50000E94A20D0C940133E4E1F3E041C78E9868
:104D60009FB7F894809108018D7F809308019FBFC1
:104D70009FB7F894809108018F7E809308019FBFB0
:104D80008B980C940133E8E6F6E08491882341F097
:104D90009091C00095FFFCCF8093C6003196F5CF6F
:104DA0008091C00085FFFCCF8AE08093C60088E533
:104DB00097E00E942E4AEAE5F6E08491882341F0CC
:104DC0009091C00095FFFCCF8093C6003196F5CF3F
:104DD0008091C00085FFFCCF8AE08093C6000C94D0
:104DE000013388E597E00E94494B0C940133009110
:104DF0005F05109160050C5F1F4F6AE270E0C8010B
:104E00000E949092009719F0FC013197108221E0E6
:104E100041E0B80188E597E00E94B84B0C9401335B
:104E200088E597E00E944D4B0E94DD846093530516
:104E30007093540580935505909356050C94013357
:104E400088E597E00E94544B0C94013380915B07F6
:104E5000882311F40C94013383E50E94F81A811120
:104E60000C9416330C94013388E597E00E94FF4FB1
:104E70000C94013380915F05909160056AE270E0C7
:104E800004960E9490928C010097E1F020916905B0
:104E900030916A0540E6429FC001439F900D112466
:104EA0006EE470E081599A4F0E94909260E270E047
:104EB0000E94909201969093600580935F05F8019F
:104EC0003197108260915F05709160056C5F7F4F34
:104ED00021E040E088E597E00E94B84B0C94013354
:104EE00080915B07882311F40C94013360E088E51E
:104EF00097E00E94B95180915F05909160056AE248
:104F000070E004960E9490928C010097E1F020914D
:104F1000690530916A0540E6429FC001439F900DAC
:104F200011246EE470E081599A4F0E94909260E2E1
:104F300070E00E94909201969093600580935F05C7
:104F4000F8013197108260915F05709160056C5F88
:104F50007F4F88E597E00E94C64E0C940133809104
:104F60005A0781110E94896E00915F0510916005BA
:104F70000C5F1F4F6AE270E0C8010E9490927C01B2
:104F800061E270E0C8010E949092009719F08C01D4
:104F90000F5F1F4FE114F10419F0F70131971082F0
:104FA00080E50E94F81AF82E20915F053091600587
:104FB0000217130708F4F12C80915B07882311F482
:104FC0000C94013321E02F2541E0B80188E597E0FA
:104FD0000E94B84B83E50E94F81A8823B9F020910B
:104FE0005F05309160052017310780F40E94ED1AAB
:104FF000AB01BC014093DB095093DC096093DD09F0
:105000007093DE0986E299E00E94163B88E597E0FE
:105010000E944D4BF1100C9401330E94DD8460938B
:1050200053057093540580935505909356050C9441
:10503000013380915F05909160056AE270E005960A
:105040000E9490928C010097E1F0209169053091C7
:105050006A0540E6429FC001439F900D11246EE413
:1050600070E081599A4F0E94909260E270E00E9435
:10507000909201969093600580935F05F8013197B7
:10508000108260915F05709160056B5F7F4F88E5CE
:1050900097E00E94C14E0C9401330E94DD8460931E
:1050A0004F057093500580935105909352050091E0
:1050B0005305109154052091550530915605601BFC
:1050C000710B820B930B28EE33E040E050E00E941E
:1050D0001B8DCA01B9012CE330E040E050E00E9492
:1050E0001B8D7F936F933F932F938BE496E09F9359
:1050F0008F93CE0101969F938F930E94BF92E7E119
:10510000F9E084910FB6F894DEBF0FBECDBFE7E1A2
:10511000F9E0882349F09091C00095FFFCCF80937F
:10512000C60031968491F5CFFE0131968191882396
:1051300039F09091C00095FFFCCF8093C600F6CF68
:105140008091C00085FFFCCF8AE08093C6008091EB
:105150003911882311F40C94013310923911009104
:10516000220710E0000F111F085A1D4EF801608140
:105170007181882777FD8095982F0E94E089209182
:1051800052023091530240915402509155020E94B4
:10519000418B181614F00C940133F801118210821F
:1051A0000C94013383E50E94F81A882311F40C94BF
:1051B00001330E94E41A6B017C0180E50E94F81A19
:1051C000882351F0C701B6010E94AD896F3F710578
:1051D00009F010F40C9426336DE070E020E0E22F2B
:1051E000EE0FFF0BEC56FC4F8081918186179707DD
:1051F00011F40C9401332F5FF2CF88E690E0D7D9F9
:1052000081110C94013383E50E94F81A882371F010
:1052100000914E050E94E41A10E0000F111F085A79
:105220001D4E0E94AD89F801718360830E94527304
:105230000C94013383E50E94F81A882311F40C942E
:1052400001330E94E41A0E94AD8970935712609353
:1052500056120C94013389E690E0A9D981110C947F
:105260000133E5E4F6E08491882341F09091C00099
:1052700095FFFCCF8093C6003196F5CFE0914E05A7
:1052800024E0E29FF0011124E05BFD4E408151815A
:105290006281738121E030E083EC94E00E94331658
:1052A000E2E4F6E08491882341F09091C00095FFFC
:1052B000FCCF8093C6003196F5CFE0914E05F0E02B
:1052C000EE0FFF1FE85AFD4E60817181882777FD40
:1052D0008095982F0E94E089AB01BC0121E030E06D
:1052E00083EC94E00E943316EEE3F6E08491882389
:1052F00041F09091C00095FFFCCF8093C60031969D
:10530000F5CF40914A1250914B1260914C1270911E
:105310004D1221E030E083EC94E00E943316EBE381
:10532000F6E08491882341F09091C00095FFFCCF76
:105330008093C6003196F5CF609156127091571246
:10534000882777FD8095982F0E94E089AB01BC01EA
:1053500021E030E083EC94E00E943316E8E3F6E0CD
:105360008491882341F09091C00095FFFCCF8093F9
:10537000C6003196F5CF4AE050E060E070E083EC83
:1053800094E00E945D15E6E3F6E08491882341F005
:105390009091C00095FFFCCF8093C6003196F5CF69
:1053A00040915012509151126091521270915312CB
:1053B00021E030E083EC94E00E943316E3E3F6E072
:1053C0008491882341F09091C00095FFFCCF809399
:1053D000C6003196F5CF6091581270915912882706
:1053E00077FD8095982F0E94E089AB01BC0121E0F8
:1053F00030E083EC94E00E943316EFE2F6E0849113
:10540000882341F09091C00095FFFCCF8093C600A7
:105410003196F5CF80914E0590E00E94D3704AE01E
:1054200050E0BC0183EC94E00E945D15EAE2F6E0F6
:105430008491882341F09091C00095FFFCCF809328
:10544000C6003196F5CF8FEF9FEF0E94D3704AE0F0
:1054500050E0BC0183EC94E00E945D158091C00097
:1054600085FFFCCF8AE08093C6000C948E348DE6D5
:1054700090E09DD881110C9401331092391183E58D
:105480000E94F81A882391F000914E050E94E41AB8
:1054900010E0000F111F085A1D4E0E94AD89F8013F
:1054A0007183608381E080930A0215C082E50E94C7
:1054B000F81A882381F000914E050E94E41A10E04A
:1054C000000F111F085A1D4E0E94AD89F80171830B
:1054D000608310920A0283E50E94F81A882351F033
:1054E0000E94E41A60935202709353028093540214
:1054F0009093550282E40E94F81A882351F00E948A
:10550000E41A609356027093570280935802909366
:10551000590286E40E94F81A882369F00E94E41A6E
:1055200060934E0270934F02809350029093510209
:1055300081E0809339110E9452730E94DD844B01F7
:105540005C0100914E0510E0F801EE0FFF1FE85AD4
:10555000FD4E60817181882777FD8095982F0E948C
:10556000E089F801EE0FFF1FEE0FFF1FE05BFD4E1D
:1055700011E020813181428153810E94418B1816B4
:105580000CF010E010934905CC24CA94DC2C760171
:10559000E8EE4E2EE3E05E2E612C712CFAE03F2EF9
:1055A0000C94893383E50E94F81A882361F00E94E5
:1055B000E41A0E94AD89709357126093561281E0ED
:1055C00080930A020FC082E50E94F81A882351F0E6
:1055D0000E94E41A0E94AD8970935712609356128C
:1055E00010920A020E94DD844B015C016091561208
:1055F00070915712882777FD8095982F0E94E08937
:1056000011E020914A1230914B1240914C1250916E
:105610004D120E94418B18160CF010E010934905B2
:105620000CE116E088E1E82E86E0F82E94E1C92E20
:1056300096E0D92E2AE0722E80914905609156128B
:1056400070915712882309F486C0882777FD8095CA
:10565000982F0E94E08920914A1230914B1240917C
:105660004C1250914D120E94418B18160CF08AC0BA
:105670000E94DD84681979098A099B09693E734093
:105680008105910508F460C0E091220734E0E39FB2
:10569000F0011124E05BFD4E4081518162817381F4
:1056A000F8018491ECE1F6E0882349F09091C00084
:1056B00095FFFCCF8093C60031968491F5CF22E010
:1056C00030E083EC94E00E943316F7018491E8E126
:1056D000F6E0882349F09091C00095FFFCCF8093BD
:1056E000C60031968491F5CF6091220770E04AE0C0
:1056F00050E083EC94E00E945D15F6018491E4E1B2
:10570000F6E0882349F09091C00095FFFCCF80938C
:10571000C60031968491F5CF40914A1250914B12B8
:1057200060914C1270914D1221E030E083EC94E0D6
:105730000E9433168091C00085FFFCCF7092C60096
:105740000E94DD844B015C010E94DE700E942522D4
:105750000E94E97971CF882777FD8095982F0E9464
:10576000E08920914A1230914B1240914C12509195
:105770004D120E943E8987FF05C080910A0288234E
:1057800009F476CF0E94DD8460935B0570935C051D
:1057900080935D0590935E0534C783E50E94F81AF7
:1057A000882311F10E94E41A20E030E0A9010E9450
:1057B0003E8987FD0FC00E94E41A20E030E04FE7E9
:1057C00053E40E94418B181644F00E94E41A0E9490
:1057D000AD8905C060E070E002C06FEF70E07093CB
:1057E0002107609320070DC78FEF90E0909321076A
:1057F0008093200706C7109221071092200701C747
:105800000E9453730E94896E8B9A0E94F16E1092CF
:1058100021071092200768EE73E080E090E00E947C
:105820000C85269A2E9AEDC681E080935707E9C62B
:1058300083E50E94F81A882399F00E94E41A20E078
:1058400030E04AE754E40E94138C0E94B2896093CE
:105850000B0270930C0280930D0290930E02D1C63E
:1058600088E50E94F81A81110C945E3489E50E9443
:10587000F81A81110C945E348AE50E94F81A81119D
:105880000C945E3485E40E94F81A81110C945E3405
:105890000E94896E8B9A0E94F16EB3C683E50E94C6
:1058A000F81A0E94E41A20E030E04AE754E40E942B
:1058B000138C0E94B28960935705709358058093AA
:1058C000590590935A059DC62CEC33E038A32F8FD1
:1058D0000AE911E1AAEA8A2EA1E19A2EBEE5AB2ED1
:1058E000B1E1BB2E312CEF8DF8A18191F8A3EF8FA0
:1058F0000E94F81A882309F45BC0F3E03F1251C0FC
:105900000E94E41A6B017C0120E030E040EA51E49F
:105910000E943E8987FF3FC0A7019601F801608180
:105920007181828193810E9445892B013C019B01F9
:10593000AC0160917211709173118091741190910A
:1059400075110E94138C6093721170937311809380
:10595000741190937511A3019201F401608171811A
:10596000828193810E94138CF4016083718382830E
:105970009383F50160817181828193810E94DE8928
:10598000A30192010E94138C0E94B289F5016083E9
:10599000718382839383F801C082D182E282F38291
:1059A00007C00E94E41AF8016083718382839383A5
:1059B00033940C5F1F4FF4E08F0E911C24E0A20E75
:1059C000B11C34E033128FCF1CC6EFE4F5E08491B4
:1059D000882309F416C69091C00095FFFCCF8093F0
:1059E000C6003196F4CF80915F05909160056AE220
:1059F00070E005960E949092009709F402C6FC019F
:105A000031971082FEC5ECE4F5E08491882341F0E3
:105A10009091C00095FFFCCF8093C6003196F5CFE2
:105A200040914207509143076091440770914507A8
:105A300022E030E083EC94E00E943316E9E4F5E0E4
:105A40008491882341F09091C00095FFFCCF809312
:105A5000C6003196F5CF40914607509147076091B7
:105A600048077091490722E030E083EC94E00E94FF
:105A70003316E6E4F5E08491882341F09091C0006C
:105A800095FFFCCF8093C6003196F5CF40914A0731
:105A900050914B0760914C0770914D0722E030E028
:105AA00083EC94E00E943316E3E4F5E084918823CC
:105AB00041F09091C00095FFFCCF8093C6003196D5
:105AC000F5CF40914E0750914F076091500770916C
:105AD000510722E030E083EC94E00E943316E8E3C3
